{
  "_format": "hh-sol-artifact-1",
  "contractName": "InspectionManager",
  "sourceName": "contracts/InspectionManager.sol",
  "abi": [
    {
      "inputs": [],
      "stateMutability": "nonpayable",
      "type": "constructor"
    },
    {
      "anonymous": false,
      "inputs": [
        {
          "indexed": false,
          "internalType": "uint256",
          "name": "",
          "type": "uint256"
        }
      ],
      "name": "InspectionResultCreated",
      "type": "event"
    },
    {
      "inputs": [
        {
          "internalType": "string",
          "name": "projectId",
          "type": "string"
        },
        {
          "internalType": "string",
          "name": "location",
          "type": "string"
        },
        {
          "internalType": "string",
          "name": "time",
          "type": "string"
        },
        {
          "internalType": "string",
          "name": "detectionClass",
          "type": "string"
        },
        {
          "internalType": "string",
          "name": "detectionResult",
          "type": "string"
        },
        {
          "internalType": "string",
          "name": "imageHash",
          "type": "string"
        },
        {
          "internalType": "string",
          "name": "imageStorageAddress",
          "type": "string"
        }
      ],
      "name": "createInspection",
      "outputs": [],
      "stateMutability": "nonpayable",
      "type": "function"
    },
    {
      "inputs": [
        {
          "internalType": "string",
          "name": "projectId",
          "type": "string"
        }
      ],
      "name": "getInpsectionByProjectId",
      "outputs": [
        {
          "internalType": "uint256[]",
          "name": "inpecs",
          "type": "uint256[]"
        }
      ],
      "stateMutability": "view",
      "type": "function"
    },
    {
      "inputs": [
        {
          "internalType": "uint256[]",
          "name": "listItems",
          "type": "uint256[]"
        }
      ],
      "name": "getItemInfor",
      "outputs": [
        {
          "components": [
            {
              "internalType": "string",
              "name": "projectId",
              "type": "string"
            },
            {
              "internalType": "string",
              "name": "location",
              "type": "string"
            },
            {
              "internalType": "string",
              "name": "time",
              "type": "string"
            },
            {
              "internalType": "string",
              "name": "detectionClass",
              "type": "string"
            },
            {
              "internalType": "string",
              "name": "detectionResult",
              "type": "string"
            },
            {
              "internalType": "string",
              "name": "imageHash",
              "type": "string"
            },
            {
              "internalType": "string",
              "name": "imageStorageAddress",
              "type": "string"
            }
          ],
          "internalType": "struct InspectionManager.InpsectionResult[]",
          "name": "items",
          "type": "tuple[]"
        }
      ],
      "stateMutability": "view",
      "type": "function"
    }
  ],
  "bytecode": "0x608060405234801561001057600080fd5b50611167806100206000396000f3fe608060405234801561001057600080fd5b50600436106100415760003560e01c80632a25aa60146100465780633cc112cc1461007657806375ac252d146100a6575b600080fd5b610060600480360381019061005b91906109a0565b6100c2565b60405161006d9190610e00565b60405180910390f35b610090600480360381019061008b91906109ed565b6105a8565b60405161009d9190610e22565b60405180910390f35b6100c060048036038101906100bb9190610a36565b61061e565b005b60608282905067ffffffffffffffff8111156100e1576100e06110d3565b5b60405190808252806020026020018201604052801561011a57816020015b6101076107fa565b8152602001906001900390816100ff5790505b5090506000805b848490508110156105a05760026000868684818110610143576101426110a4565b5b9050602002013581526020019081526020016000206040518060e001604052908160008201805461017390610f9a565b80601f016020809104026020016040519081016040528092919081815260200182805461019f90610f9a565b80156101ec5780601f106101c1576101008083540402835291602001916101ec565b820191906000526020600020905b8154815290600101906020018083116101cf57829003601f168201915b5050505050815260200160018201805461020590610f9a565b80601f016020809104026020016040519081016040528092919081815260200182805461023190610f9a565b801561027e5780601f106102535761010080835404028352916020019161027e565b820191906000526020600020905b81548152906001019060200180831161026157829003601f168201915b5050505050815260200160028201805461029790610f9a565b80601f01602080910402602001604051908101604052809291908181526020018280546102c390610f9a565b80156103105780601f106102e557610100808354040283529160200191610310565b820191906000526020600020905b8154815290600101906020018083116102f357829003601f168201915b5050505050815260200160038201805461032990610f9a565b80601f016020809104026020016040519081016040528092919081815260200182805461035590610f9a565b80156103a25780601f10610377576101008083540402835291602001916103a2565b820191906000526020600020905b81548152906001019060200180831161038557829003601f168201915b505050505081526020016004820180546103bb90610f9a565b80601f01602080910402602001604051908101604052809291908181526020018280546103e790610f9a565b80156104345780601f1061040957610100808354040283529160200191610434565b820191906000526020600020905b81548152906001019060200180831161041757829003601f168201915b5050505050815260200160058201805461044d90610f9a565b80601f016020809104026020016040519081016040528092919081815260200182805461047990610f9a565b80156104c65780601f1061049b576101008083540402835291602001916104c6565b820191906000526020600020905b8154815290600101906020018083116104a957829003601f168201915b505050505081526020016006820180546104df90610f9a565b80601f016020809104026020016040519081016040528092919081815260200182805461050b90610f9a565b80156105585780601f1061052d57610100808354040283529160200191610558565b820191906000526020600020905b81548152906001019060200180831161053b57829003601f168201915b505050505081525050838381518110610574576105736110a4565b5b6020026020010181905250818061058a90610ffd565b925050808061059890610ffd565b915050610121565b505092915050565b60606001826040516105ba9190610de9565b908152602001604051809103902080548060200260200160405190810160405280929190818152602001828054801561061257602002820191906000526020600020905b8154815260200190600101908083116105fe575b50505050509050919050565b61062860006107d6565b600061063460006107ec565b905060006040518060e001604052808a81526020018981526020018881526020018781526020018681526020018581526020018481525090508060026000848152602001908152602001600020600082015181600001908051906020019061069d929190610837565b5060208201518160010190805190602001906106ba929190610837565b5060408201518160020190805190602001906106d7929190610837565b5060608201518160030190805190602001906106f4929190610837565b506080820151816004019080519060200190610711929190610837565b5060a082015181600501908051906020019061072e929190610837565b5060c082015181600601908051906020019061074b929190610837565b5090505060018960405161075f9190610de9565b90815260200160405180910390208290806001815401808255809150506001900390600052602060002001600090919091909150557fd2227b4cb86cca0ce52688d2a0ed06b1eb2b0a1c0ccc0e401b7019375192fa53826040516107c39190610e44565b60405180910390a1505050505050505050565b6001816000016000828254019250508190555050565b600081600001549050919050565b6040518060e00160405280606081526020016060815260200160608152602001606081526020016060815260200160608152602001606081525090565b82805461084390610f9a565b90600052602060002090601f01602090048101928261086557600085556108ac565b82601f1061087e57805160ff19168380011785556108ac565b828001600101855582156108ac579182015b828111156108ab578251825591602001919060010190610890565b5b5090506108b991906108bd565b5090565b5b808211156108d65760008160009055506001016108be565b5090565b60006108ed6108e884610e84565b610e5f565b90508281526020810184848401111561090957610908611111565b5b610914848285610f58565b509392505050565b60008083601f84011261093257610931611107565b5b8235905067ffffffffffffffff81111561094f5761094e611102565b5b60208301915083602082028301111561096b5761096a61110c565b5b9250929050565b600082601f83011261098757610986611107565b5b81356109978482602086016108da565b91505092915050565b600080602083850312156109b7576109b661111b565b5b600083013567ffffffffffffffff8111156109d5576109d4611116565b5b6109e18582860161091c565b92509250509250929050565b600060208284031215610a0357610a0261111b565b5b600082013567ffffffffffffffff811115610a2157610a20611116565b5b610a2d84828501610972565b91505092915050565b600080600080600080600060e0888a031215610a5557610a5461111b565b5b600088013567ffffffffffffffff811115610a7357610a72611116565b5b610a7f8a828b01610972565b975050602088013567ffffffffffffffff811115610aa057610a9f611116565b5b610aac8a828b01610972565b965050604088013567ffffffffffffffff811115610acd57610acc611116565b5b610ad98a828b01610972565b955050606088013567ffffffffffffffff811115610afa57610af9611116565b5b610b068a828b01610972565b945050608088013567ffffffffffffffff811115610b2757610b26611116565b5b610b338a828b01610972565b93505060a088013567ffffffffffffffff811115610b5457610b53611116565b5b610b608a828b01610972565b92505060c088013567ffffffffffffffff811115610b8157610b80611116565b5b610b8d8a828b01610972565b91505092959891949750929550565b6000610ba88383610d05565b905092915050565b6000610bbc8383610dcb565b60208301905092915050565b6000610bd382610ed5565b610bdd8185610f10565b935083602082028501610bef85610eb5565b8060005b85811015610c2b5784840389528151610c0c8582610b9c565b9450610c1783610ef6565b925060208a01995050600181019050610bf3565b50829750879550505050505092915050565b6000610c4882610ee0565b610c528185610f21565b9350610c5d83610ec5565b8060005b83811015610c8e578151610c758882610bb0565b9750610c8083610f03565b925050600181019050610c61565b5085935050505092915050565b6000610ca682610eeb565b610cb08185610f32565b9350610cc0818560208601610f67565b610cc981611120565b840191505092915050565b6000610cdf82610eeb565b610ce98185610f43565b9350610cf9818560208601610f67565b80840191505092915050565b600060e0830160008301518482036000860152610d228282610c9b565b91505060208301518482036020860152610d3c8282610c9b565b91505060408301518482036040860152610d568282610c9b565b91505060608301518482036060860152610d708282610c9b565b91505060808301518482036080860152610d8a8282610c9b565b91505060a083015184820360a0860152610da48282610c9b565b91505060c083015184820360c0860152610dbe8282610c9b565b9150508091505092915050565b610dd481610f4e565b82525050565b610de381610f4e565b82525050565b6000610df58284610cd4565b915081905092915050565b60006020820190508181036000830152610e1a8184610bc8565b905092915050565b60006020820190508181036000830152610e3c8184610c3d565b905092915050565b6000602082019050610e596000830184610dda565b92915050565b6000610e69610e7a565b9050610e758282610fcc565b919050565b6000604051905090565b600067ffffffffffffffff821115610e9f57610e9e6110d3565b5b610ea882611120565b9050602081019050919050565b6000819050602082019050919050565b6000819050602082019050919050565b600081519050919050565b600081519050919050565b600081519050919050565b6000602082019050919050565b6000602082019050919050565b600082825260208201905092915050565b600082825260208201905092915050565b600082825260208201905092915050565b600081905092915050565b6000819050919050565b82818337600083830152505050565b60005b83811015610f85578082015181840152602081019050610f6a565b83811115610f94576000848401525b50505050565b60006002820490506001821680610fb257607f821691505b60208210811415610fc657610fc5611075565b5b50919050565b610fd582611120565b810181811067ffffffffffffffff82111715610ff457610ff36110d3565b5b80604052505050565b600061100882610f4e565b91507fffffffffffffffffffffffffffffffffffffffffffffffffffffffffffffffff82141561103b5761103a611046565b5b600182019050919050565b7f4e487b7100000000000000000000000000000000000000000000000000000000600052601160045260246000fd5b7f4e487b7100000000000000000000000000000000000000000000000000000000600052602260045260246000fd5b7f4e487b7100000000000000000000000000000000000000000000000000000000600052603260045260246000fd5b7f4e487b7100000000000000000000000000000000000000000000000000000000600052604160045260246000fd5b600080fd5b600080fd5b600080fd5b600080fd5b600080fd5b600080fd5b6000601f19601f830116905091905056fea2646970667358221220e8559e589b4c211d569c3a36b86736f024d189ddd26a48273570d1c3ec31fc0164736f6c63430008070033",
  "linkReferences": {},
  "deployedLinkReferences": {}
}