{
  "_format": "hh-sol-artifact-1",
  "contractName": "TaskManager",
  "sourceName": "contracts/TaskManager.sol",
  "abi": [
    {
      "inputs": [],
      "stateMutability": "nonpayable",
      "type": "constructor"
    },
    {
      "anonymous": false,
      "inputs": [
        {
          "indexed": false,
          "internalType": "uint256",
          "name": "",
          "type": "uint256"
        }
      ],
      "name": "TaskCompleted",
      "type": "event"
    },
    {
      "anonymous": false,
      "inputs": [
        {
          "indexed": false,
          "internalType": "uint256",
          "name": "",
          "type": "uint256"
        }
      ],
      "name": "TaskCreated",
      "type": "event"
    },
    {
      "anonymous": false,
      "inputs": [
        {
          "indexed": false,
          "internalType": "uint256",
          "name": "",
          "type": "uint256"
        }
      ],
      "name": "TaskUpdated",
      "type": "event"
    },
    {
      "inputs": [
        {
          "internalType": "uint256",
          "name": "_tokenId",
          "type": "uint256"
        },
        {
          "internalType": "uint256",
          "name": "_amount",
          "type": "uint256"
        }
      ],
      "name": "confirmTask",
      "outputs": [],
      "stateMutability": "payable",
      "type": "function"
    },
    {
      "inputs": [
        {
          "internalType": "string",
          "name": "projectId",
          "type": "string"
        },
        {
          "internalType": "string",
          "name": "instructor",
          "type": "string"
        },
        {
          "internalType": "string",
          "name": "activityId",
          "type": "string"
        },
        {
          "internalType": "string",
          "name": "location",
          "type": "string"
        },
        {
          "internalType": "string",
          "name": "duration",
          "type": "string"
        },
        {
          "internalType": "string",
          "name": "worker",
          "type": "string"
        },
        {
          "internalType": "string",
          "name": "currentStep",
          "type": "string"
        },
        {
          "internalType": "string",
          "name": "status",
          "type": "string"
        },
        {
          "internalType": "address",
          "name": "walletAddress",
          "type": "address"
        }
      ],
      "name": "createTask",
      "outputs": [],
      "stateMutability": "nonpayable",
      "type": "function"
    },
    {
      "inputs": [
        {
          "internalType": "uint256[]",
          "name": "listItems",
          "type": "uint256[]"
        }
      ],
      "name": "getItemInfor",
      "outputs": [
        {
          "components": [
            {
              "internalType": "string",
              "name": "projectId",
              "type": "string"
            },
            {
              "internalType": "string",
              "name": "instructor",
              "type": "string"
            },
            {
              "internalType": "string",
              "name": "activityId",
              "type": "string"
            },
            {
              "internalType": "string",
              "name": "location",
              "type": "string"
            },
            {
              "internalType": "string",
              "name": "duration",
              "type": "string"
            },
            {
              "internalType": "string",
              "name": "worker",
              "type": "string"
            },
            {
              "internalType": "string",
              "name": "currentStep",
              "type": "string"
            },
            {
              "internalType": "string",
              "name": "status",
              "type": "string"
            },
            {
              "internalType": "address",
              "name": "walletAddress",
              "type": "address"
            }
          ],
          "internalType": "struct TaskManager.Task[]",
          "name": "items",
          "type": "tuple[]"
        }
      ],
      "stateMutability": "view",
      "type": "function"
    },
    {
      "inputs": [
        {
          "internalType": "string",
          "name": "projectId",
          "type": "string"
        }
      ],
      "name": "getTasksByProjectId",
      "outputs": [
        {
          "internalType": "uint256[]",
          "name": "tasks",
          "type": "uint256[]"
        }
      ],
      "stateMutability": "view",
      "type": "function"
    },
    {
      "inputs": [
        {
          "internalType": "uint256",
          "name": "_tokenId",
          "type": "uint256"
        },
        {
          "internalType": "string",
          "name": "currentStep",
          "type": "string"
        }
      ],
      "name": "updateLastStepTask",
      "outputs": [],
      "stateMutability": "nonpayable",
      "type": "function"
    },
    {
      "inputs": [
        {
          "internalType": "uint256",
          "name": "_tokenId",
          "type": "uint256"
        },
        {
          "internalType": "string",
          "name": "currentStep",
          "type": "string"
        }
      ],
      "name": "updateTask",
      "outputs": [],
      "stateMutability": "nonpayable",
      "type": "function"
    }
  ],
  "bytecode": "0x608060405234801561001057600080fd5b50611a33806100206000396000f3fe6080604052600436106100555760003560e01c8063184db3661461005a5780632a25aa601461009757806333f837a5146100d4578063666f25b2146100fd57806386533f6c14610126578063e21fc1f61461014f575b600080fd5b34801561006657600080fd5b50610081600480360381019061007c9190611007565b61016b565b60405161008e91906115dd565b60405180910390f35b3480156100a357600080fd5b506100be60048036038101906100b99190610fba565b6101e1565b6040516100cb91906115bb565b60405180910390f35b3480156100e057600080fd5b506100fb60048036038101906100f69190611050565b6107b0565b005b34801561010957600080fd5b50610124600480360381019061011f91906111fa565b6109f2565b005b34801561013257600080fd5b5061014d600480360381019061014891906111fa565b610aa8565b005b6101696004803603810190610164919061125a565b610b10565b005b606060018260405161017d919061158f565b90815260200160405180910390208054806020026020016040519081016040528092919081815260200182805480156101d557602002820191906000526020600020905b8154815260200190600101908083116101c1575b50505050509050919050565b60608282905067ffffffffffffffff811115610200576101ff61191c565b5b60405190808252806020026020018201604052801561023957816020015b610226610ce9565b81526020019060019003908161021e5790505b5090506000805b848490508110156107a85760026000868684818110610262576102616118ed565b5b90506020020135815260200190815260200160002060405180610120016040529081600082018054610293906117e3565b80601f01602080910402602001604051908101604052809291908181526020018280546102bf906117e3565b801561030c5780601f106102e15761010080835404028352916020019161030c565b820191906000526020600020905b8154815290600101906020018083116102ef57829003601f168201915b50505050508152602001600182018054610325906117e3565b80601f0160208091040260200160405190810160405280929190818152602001828054610351906117e3565b801561039e5780601f106103735761010080835404028352916020019161039e565b820191906000526020600020905b81548152906001019060200180831161038157829003601f168201915b505050505081526020016002820180546103b7906117e3565b80601f01602080910402602001604051908101604052809291908181526020018280546103e3906117e3565b80156104305780601f1061040557610100808354040283529160200191610430565b820191906000526020600020905b81548152906001019060200180831161041357829003601f168201915b50505050508152602001600382018054610449906117e3565b80601f0160208091040260200160405190810160405280929190818152602001828054610475906117e3565b80156104c25780601f10610497576101008083540402835291602001916104c2565b820191906000526020600020905b8154815290600101906020018083116104a557829003601f168201915b505050505081526020016004820180546104db906117e3565b80601f0160208091040260200160405190810160405280929190818152602001828054610507906117e3565b80156105545780601f1061052957610100808354040283529160200191610554565b820191906000526020600020905b81548152906001019060200180831161053757829003601f168201915b5050505050815260200160058201805461056d906117e3565b80601f0160208091040260200160405190810160405280929190818152602001828054610599906117e3565b80156105e65780601f106105bb576101008083540402835291602001916105e6565b820191906000526020600020905b8154815290600101906020018083116105c957829003601f168201915b505050505081526020016006820180546105ff906117e3565b80601f016020809104026020016040519081016040528092919081815260200182805461062b906117e3565b80156106785780601f1061064d57610100808354040283529160200191610678565b820191906000526020600020905b81548152906001019060200180831161065b57829003601f168201915b50505050508152602001600782018054610691906117e3565b80601f01602080910402602001604051908101604052809291908181526020018280546106bd906117e3565b801561070a5780601f106106df5761010080835404028352916020019161070a565b820191906000526020600020905b8154815290600101906020018083116106ed57829003601f168201915b505050505081526020016008820160009054906101000a900473ffffffffffffffffffffffffffffffffffffffff1673ffffffffffffffffffffffffffffffffffffffff1673ffffffffffffffffffffffffffffffffffffffff168152505083838151811061077c5761077b6118ed565b5b6020026020010181905250818061079290611846565b92505080806107a090611846565b915050610240565b505092915050565b6107ba6000610cc5565b60006107c66000610cdb565b905060006040518061012001604052808c81526020018b81526020018a81526020018981526020018881526020018781526020018681526020018581526020018473ffffffffffffffffffffffffffffffffffffffff16815250905080600260008481526020019081526020016000206000820151816000019080519060200190610852929190610d4b565b50602082015181600101908051906020019061086f929190610d4b565b50604082015181600201908051906020019061088c929190610d4b565b5060608201518160030190805190602001906108a9929190610d4b565b5060808201518160040190805190602001906108c6929190610d4b565b5060a08201518160050190805190602001906108e3929190610d4b565b5060c0820151816006019080519060200190610900929190610d4b565b5060e082015181600701908051906020019061091d929190610d4b565b506101008201518160080160006101000a81548173ffffffffffffffffffffffffffffffffffffffff021916908373ffffffffffffffffffffffffffffffffffffffff16021790555090505060018b604051610979919061158f565b90815260200160405180910390208290806001815401808255809150506001900390600052602060002001600090919091909150557fba46948ae716559226cede7aac0175e8ddd11b7cb3ea0369c9f218ef908b87d5826040516109dd919061163f565b60405180910390a15050505050505050505050565b60006002600085815260200190815260200160002090508282826006019190610a1c929190610dd1565b506040518060400160405280600781526020017f70656e64696e6700000000000000000000000000000000000000000000000000815250816007019080519060200190610a6a929190610d4b565b507f6609cd564a515cc09deed9748ce5d9ca750c1b9e83f7ff246dbfac4de84a0aaa84604051610a9a919061163f565b60405180910390a150505050565b60006002600085815260200190815260200160002090508282826006019190610ad2929190610dd1565b507f6609cd564a515cc09deed9748ce5d9ca750c1b9e83f7ff246dbfac4de84a0aaa84604051610b02919061163f565b60405180910390a150505050565b60003411610b53576040517f08c379a0000000000000000000000000000000000000000000000000000000008152600401610b4a906115ff565b60405180910390fd5b600060026000848152602001908152602001600020905060008160080160009054906101000a900473ffffffffffffffffffffffffffffffffffffffff1673ffffffffffffffffffffffffffffffffffffffff1683604051610bb4906115a6565b60006040518083038185875af1925050503d8060008114610bf1576040519150601f19603f3d011682016040523d82523d6000602084013e610bf6565b606091505b5050905080610c3a576040517f08c379a0000000000000000000000000000000000000000000000000000000008152600401610c319061161f565b60405180910390fd5b6040518060400160405280600781526020017f7375636365737300000000000000000000000000000000000000000000000000815250826007019080519060200190610c87929190610d4b565b507fc1fa7142cfb933d0855114a3bffde296944c30b727f297c14d0db4d553d3a5c784604051610cb7919061163f565b60405180910390a150505050565b6001816000016000828254019250508190555050565b600081600001549050919050565b6040518061012001604052806060815260200160608152602001606081526020016060815260200160608152602001606081526020016060815260200160608152602001600073ffffffffffffffffffffffffffffffffffffffff1681525090565b828054610d57906117e3565b90600052602060002090601f016020900481019282610d795760008555610dc0565b82601f10610d9257805160ff1916838001178555610dc0565b82800160010185558215610dc0579182015b82811115610dbf578251825591602001919060010190610da4565b5b509050610dcd9190610e57565b5090565b828054610ddd906117e3565b90600052602060002090601f016020900481019282610dff5760008555610e46565b82601f10610e1857803560ff1916838001178555610e46565b82800160010185558215610e46579182015b82811115610e45578235825591602001919060010190610e2a565b5b509050610e539190610e57565b5090565b5b80821115610e70576000816000905550600101610e58565b5090565b6000610e87610e828461167f565b61165a565b905082815260208101848484011115610ea357610ea261195a565b5b610eae8482856117a1565b509392505050565b600081359050610ec5816119cf565b92915050565b60008083601f840112610ee157610ee0611950565b5b8235905067ffffffffffffffff811115610efe57610efd61194b565b5b602083019150836020820283011115610f1a57610f19611955565b5b9250929050565b60008083601f840112610f3757610f36611950565b5b8235905067ffffffffffffffff811115610f5457610f5361194b565b5b602083019150836001820283011115610f7057610f6f611955565b5b9250929050565b600082601f830112610f8c57610f8b611950565b5b8135610f9c848260208601610e74565b91505092915050565b600081359050610fb4816119e6565b92915050565b60008060208385031215610fd157610fd0611964565b5b600083013567ffffffffffffffff811115610fef57610fee61195f565b5b610ffb85828601610ecb565b92509250509250929050565b60006020828403121561101d5761101c611964565b5b600082013567ffffffffffffffff81111561103b5761103a61195f565b5b61104784828501610f77565b91505092915050565b60008060008060008060008060006101208a8c03121561107357611072611964565b5b60008a013567ffffffffffffffff8111156110915761109061195f565b5b61109d8c828d01610f77565b99505060208a013567ffffffffffffffff8111156110be576110bd61195f565b5b6110ca8c828d01610f77565b98505060408a013567ffffffffffffffff8111156110eb576110ea61195f565b5b6110f78c828d01610f77565b97505060608a013567ffffffffffffffff8111156111185761111761195f565b5b6111248c828d01610f77565b96505060808a013567ffffffffffffffff8111156111455761114461195f565b5b6111518c828d01610f77565b95505060a08a013567ffffffffffffffff8111156111725761117161195f565b5b61117e8c828d01610f77565b94505060c08a013567ffffffffffffffff81111561119f5761119e61195f565b5b6111ab8c828d01610f77565b93505060e08a013567ffffffffffffffff8111156111cc576111cb61195f565b5b6111d88c828d01610f77565b9250506101006111ea8c828d01610eb6565b9150509295985092959850929598565b60008060006040848603121561121357611212611964565b5b600061122186828701610fa5565b935050602084013567ffffffffffffffff8111156112425761124161195f565b5b61124e86828701610f21565b92509250509250925092565b6000806040838503121561127157611270611964565b5b600061127f85828601610fa5565b925050602061129085828601610fa5565b9150509250929050565b60006112a6838361147b565b905092915050565b60006112ba8383611571565b60208301905092915050565b6112cf81611765565b82525050565b60006112e0826116d0565b6112ea818561170b565b9350836020820285016112fc856116b0565b8060005b858110156113385784840389528151611319858261129a565b9450611324836116f1565b925060208a01995050600181019050611300565b50829750879550505050505092915050565b6000611355826116db565b61135f818561171c565b935061136a836116c0565b8060005b8381101561139b57815161138288826112ae565b975061138d836116fe565b92505060018101905061136e565b5085935050505092915050565b60006113b3826116e6565b6113bd8185611738565b93506113cd8185602086016117b0565b6113d681611969565b840191505092915050565b60006113ec826116e6565b6113f6818561175a565b93506114068185602086016117b0565b80840191505092915050565b600061141f601d83611749565b915061142a8261197a565b602082019050919050565b6000611442601383611749565b915061144d826119a3565b602082019050919050565b600061146560008361172d565b9150611470826119cc565b600082019050919050565b600061012083016000830151848203600086015261149982826113a8565b915050602083015184820360208601526114b382826113a8565b915050604083015184820360408601526114cd82826113a8565b915050606083015184820360608601526114e782826113a8565b9150506080830151848203608086015261150182826113a8565b91505060a083015184820360a086015261151b82826113a8565b91505060c083015184820360c086015261153582826113a8565b91505060e083015184820360e086015261154f82826113a8565b9150506101008301516115666101008601826112c6565b508091505092915050565b61157a81611797565b82525050565b61158981611797565b82525050565b600061159b82846113e1565b915081905092915050565b60006115b182611458565b9150819050919050565b600060208201905081810360008301526115d581846112d5565b905092915050565b600060208201905081810360008301526115f7818461134a565b905092915050565b6000602082019050818103600083015261161881611412565b9050919050565b6000602082019050818103600083015261163881611435565b9050919050565b60006020820190506116546000830184611580565b92915050565b6000611664611675565b90506116708282611815565b919050565b6000604051905090565b600067ffffffffffffffff82111561169a5761169961191c565b5b6116a382611969565b9050602081019050919050565b6000819050602082019050919050565b6000819050602082019050919050565b600081519050919050565b600081519050919050565b600081519050919050565b6000602082019050919050565b6000602082019050919050565b600082825260208201905092915050565b600082825260208201905092915050565b600081905092915050565b600082825260208201905092915050565b600082825260208201905092915050565b600081905092915050565b600061177082611777565b9050919050565b600073ffffffffffffffffffffffffffffffffffffffff82169050919050565b6000819050919050565b82818337600083830152505050565b60005b838110156117ce5780820151818401526020810190506117b3565b838111156117dd576000848401525b50505050565b600060028204905060018216806117fb57607f821691505b6020821081141561180f5761180e6118be565b5b50919050565b61181e82611969565b810181811067ffffffffffffffff8211171561183d5761183c61191c565b5b80604052505050565b600061185182611797565b91507fffffffffffffffffffffffffffffffffffffffffffffffffffffffffffffffff8214156118845761188361188f565b5b600182019050919050565b7f4e487b7100000000000000000000000000000000000000000000000000000000600052601160045260246000fd5b7f4e487b7100000000000000000000000000000000000000000000000000000000600052602260045260246000fd5b7f4e487b7100000000000000000000000000000000000000000000000000000000600052603260045260246000fd5b7f4e487b7100000000000000000000000000000000000000000000000000000000600052604160045260246000fd5b600080fd5b600080fd5b600080fd5b600080fd5b600080fd5b600080fd5b6000601f19601f8301169050919050565b7f54686520746f6b656e206e65656420746f206d6f7265207468616e2030000000600082015250565b7f4661696c656420746f2073656e64204156415800000000000000000000000000600082015250565b50565b6119d881611765565b81146119e357600080fd5b50565b6119ef81611797565b81146119fa57600080fd5b5056fea2646970667358221220608ad4733e867ab6ab7c3b8a16ae43438e2c7d5ae0f61629885d4decde2e863764736f6c63430008070033",
  "linkReferences": {},
  "deployedLinkReferences": {}
}